{
  "_format": "hh-sol-artifact-1",
  "contractName": "mohsinsDex",
  "sourceName": "contracts/mohsinsDex.sol",
  "abi": [
    {
      "inputs": [],
      "name": "StakingTimeIsRemain",
      "type": "error"
    },
    {
      "inputs": [],
      "name": "TransferFaild",
      "type": "error"
    },
    {
      "inputs": [],
      "name": "YouAreNotAuthorise",
      "type": "error"
    },
    {
      "inputs": [],
      "name": "youCantSetZeroAddress",
      "type": "error"
    },
    {
      "inputs": [],
      "name": "youDontHaveBalance",
      "type": "error"
    },
    {
      "anonymous": false,
      "inputs": [
        {
          "indexed": true,
          "internalType": "address",
          "name": "previousOwner",
          "type": "address"
        },
        {
          "indexed": true,
          "internalType": "address",
          "name": "newOwner",
          "type": "address"
        }
      ],
      "name": "OwnershipTransferred",
      "type": "event"
    },
    {
      "anonymous": false,
      "inputs": [
        {
          "indexed": true,
          "internalType": "address",
          "name": "tokenAddress",
          "type": "address"
        },
        {
          "indexed": true,
          "internalType": "address",
          "name": "creator",
          "type": "address"
        }
      ],
      "name": "TokenCreated",
      "type": "event"
    },
    {
      "inputs": [],
      "name": "Addedtokens",
      "outputs": [
        {
          "internalType": "uint256",
          "name": "",
          "type": "uint256"
        }
      ],
      "stateMutability": "view",
      "type": "function"
    },
    {
      "inputs": [
        {
          "internalType": "uint256",
          "name": "_tokenNb",
          "type": "uint256"
        },
        {
          "internalType": "uint256",
          "name": "_amount",
          "type": "uint256"
        }
      ],
      "name": "BuyToken",
      "outputs": [],
      "stateMutability": "payable",
      "type": "function"
    },
    {
      "inputs": [
        {
          "internalType": "address",
          "name": "_token",
          "type": "address"
        },
        {
          "internalType": "uint256",
          "name": "_amount",
          "type": "uint256"
        },
        {
          "internalType": "uint256",
          "name": "_endTime",
          "type": "uint256"
        }
      ],
      "name": "Staking",
      "outputs": [],
      "stateMutability": "nonpayable",
      "type": "function"
    },
    {
      "inputs": [
        {
          "internalType": "uint256",
          "name": "_stakingId",
          "type": "uint256"
        }
      ],
      "name": "WithdrawStakingTokens",
      "outputs": [],
      "stateMutability": "nonpayable",
      "type": "function"
    },
    {
      "inputs": [
        {
          "internalType": "address",
          "name": "_token",
          "type": "address"
        }
      ],
      "name": "addCustomToken",
      "outputs": [],
      "stateMutability": "nonpayable",
      "type": "function"
    },
    {
      "inputs": [],
      "name": "bank",
      "outputs": [
        {
          "internalType": "address",
          "name": "",
          "type": "address"
        }
      ],
      "stateMutability": "view",
      "type": "function"
    },
    {
      "inputs": [
        {
          "internalType": "string",
          "name": "name",
          "type": "string"
        },
        {
          "internalType": "string",
          "name": "symbol",
          "type": "string"
        },
        {
          "internalType": "uint256",
          "name": "initialSupply",
          "type": "uint256"
        },
        {
          "internalType": "address",
          "name": "owner",
          "type": "address"
        }
      ],
      "name": "createToken",
      "outputs": [
        {
          "internalType": "address",
          "name": "",
          "type": "address"
        }
      ],
      "stateMutability": "nonpayable",
      "type": "function"
    },
    {
      "inputs": [
        {
          "internalType": "uint256",
          "name": "_amount",
          "type": "uint256"
        }
      ],
      "name": "getTex",
      "outputs": [
        {
          "internalType": "uint256",
          "name": "",
          "type": "uint256"
        }
      ],
      "stateMutability": "view",
      "type": "function"
    },
    {
      "inputs": [],
      "name": "owner",
      "outputs": [
        {
          "internalType": "address",
          "name": "",
          "type": "address"
        }
      ],
      "stateMutability": "view",
      "type": "function"
    },
    {
      "inputs": [],
      "name": "renounceOwnership",
      "outputs": [],
      "stateMutability": "nonpayable",
      "type": "function"
    },
    {
      "inputs": [
        {
          "internalType": "address",
          "name": "_bankAccount",
          "type": "address"
        }
      ],
      "name": "setBankAddress",
      "outputs": [],
      "stateMutability": "nonpayable",
      "type": "function"
    },
    {
      "inputs": [
        {
          "internalType": "address",
          "name": "_token",
          "type": "address"
        }
      ],
      "name": "setMyToken",
      "outputs": [],
      "stateMutability": "nonpayable",
      "type": "function"
    },
    {
      "inputs": [
        {
          "internalType": "address",
          "name": "_texCallector",
          "type": "address"
        }
      ],
      "name": "setTexCallector",
      "outputs": [],
      "stateMutability": "nonpayable",
      "type": "function"
    },
    {
      "inputs": [
        {
          "internalType": "uint256",
          "name": "",
          "type": "uint256"
        }
      ],
      "name": "staking",
      "outputs": [
        {
          "internalType": "address",
          "name": "staker",
          "type": "address"
        },
        {
          "internalType": "address",
          "name": "token",
          "type": "address"
        },
        {
          "internalType": "uint256",
          "name": "amount",
          "type": "uint256"
        },
        {
          "internalType": "uint256",
          "name": "startTime",
          "type": "uint256"
        },
        {
          "internalType": "uint256",
          "name": "endTime",
          "type": "uint256"
        }
      ],
      "stateMutability": "view",
      "type": "function"
    },
    {
      "inputs": [],
      "name": "stakingId",
      "outputs": [
        {
          "internalType": "uint256",
          "name": "",
          "type": "uint256"
        }
      ],
      "stateMutability": "view",
      "type": "function"
    },
    {
      "inputs": [
        {
          "internalType": "uint256",
          "name": "_amount",
          "type": "uint256"
        }
      ],
      "name": "stakingReward",
      "outputs": [
        {
          "internalType": "uint256",
          "name": "",
          "type": "uint256"
        }
      ],
      "stateMutability": "view",
      "type": "function"
    },
    {
      "inputs": [
        {
          "internalType": "uint256",
          "name": "_tokenNb",
          "type": "uint256"
        },
        {
          "internalType": "address",
          "name": "_swapeWith",
          "type": "address"
        },
        {
          "internalType": "uint256",
          "name": "_amount",
          "type": "uint256"
        }
      ],
      "name": "swapeToken",
      "outputs": [],
      "stateMutability": "nonpayable",
      "type": "function"
    },
    {
      "inputs": [],
      "name": "texCallector",
      "outputs": [
        {
          "internalType": "address",
          "name": "",
          "type": "address"
        }
      ],
      "stateMutability": "view",
      "type": "function"
    },
    {
      "inputs": [
        {
          "internalType": "uint256",
          "name": "",
          "type": "uint256"
        }
      ],
      "name": "tokens",
      "outputs": [
        {
          "internalType": "address",
          "name": "",
          "type": "address"
        }
      ],
      "stateMutability": "view",
      "type": "function"
    },
    {
      "inputs": [
        {
          "internalType": "address",
          "name": "newOwner",
          "type": "address"
        }
      ],
      "name": "transferOwnership",
      "outputs": [],
      "stateMutability": "nonpayable",
      "type": "function"
    },
    {
      "inputs": [],
      "name": "withDraw",
      "outputs": [],
      "stateMutability": "nonpayable",
      "type": "function"
    }
  ],
  "bytecode": "0x608060405260c860045561012c60055534801561001b57600080fd5b5061003861002d61003d60201b60201c565b61004560201b60201c565b610109565b600033905090565b60008060009054906101000a900473ffffffffffffffffffffffffffffffffffffffff169050816000806101000a81548173ffffffffffffffffffffffffffffffffffffffff021916908373ffffffffffffffffffffffffffffffffffffffff1602179055508173ffffffffffffffffffffffffffffffffffffffff168173ffffffffffffffffffffffffffffffffffffffff167f8be0079c531659141344cd1fd0a4f28419497f9722a3daafe3b4186f6b6457e060405160405180910390a35050565b61416480620001196000396000f3fe608060405260043610620001465760003560e01c80638da5cb5b11620000bb578063bc734d521162000079578063bc734d521462000441578063bf02ccce146200046f578063c416770d146200049f578063f2fde38b14620004cd578063faf4a18514620004fb578063fc3c0eee14620005295762000146565b80638da5cb5b146200032b5780638f9d8c7d146200035b5780639d49be33146200039f578063a7cce4e814620003cf578063af3a82cb14620003fd5762000146565b80636ffe5b0611620001095780636ffe5b061462000263578063715018a6146200028357806376cdb03b146200029d5780637814730a14620002cd57806381e337f214620002fd5762000146565b80630fdb1c10146200014b57806313369d2c14620001655780631dbb2a22146200019357806334f359f914620001db5780634f64b2be146200021f575b600080fd5b3480156200015857600080fd5b506200016362000557565b005b3480156200017257600080fd5b506200019160048036038101906200018b919062001887565b6200060c565b005b348015620001a057600080fd5b50620001bf6004803603810190620001b9919062001887565b620008d0565b604051620001d29594939291906200190f565b60405180910390f35b348015620001e857600080fd5b5062000207600480360381019062000201919062001aff565b62000946565b60405162000216919062001baf565b60405180910390f35b3480156200022c57600080fd5b506200024b600480360381019062000245919062001887565b62000b59565b6040516200025a919062001baf565b60405180910390f35b6200028160048036038101906200027b919062001bcc565b62000b8c565b005b3480156200029057600080fd5b506200029b62000c58565b005b348015620002aa57600080fd5b50620002b562000c70565b604051620002c4919062001baf565b60405180910390f35b348015620002da57600080fd5b50620002e562000c96565b604051620002f4919062001baf565b60405180910390f35b3480156200030a57600080fd5b5062000329600480360381019062000323919062001c13565b62000cbc565b005b3480156200033857600080fd5b506200034362000d71565b60405162000352919062001baf565b60405180910390f35b3480156200036857600080fd5b5062000387600480360381019062000381919062001887565b62000d9a565b60405162000396919062001c45565b60405180910390f35b348015620003ac57600080fd5b50620003b762000dc2565b604051620003c6919062001c45565b60405180910390f35b348015620003dc57600080fd5b50620003fb6004803603810190620003f5919062001c62565b62000dc8565b005b3480156200040a57600080fd5b5062000429600480360381019062000423919062001887565b6200104d565b60405162000438919062001c45565b60405180910390f35b3480156200044e57600080fd5b506200046d600480360381019062000467919062001c13565b62001075565b005b3480156200047c57600080fd5b50620004876200112a565b60405162000496919062001c45565b60405180910390f35b348015620004ac57600080fd5b50620004cb6004803603810190620004c5919062001cbe565b62001130565b005b348015620004da57600080fd5b50620004f96004803603810190620004f3919062001c13565b62001424565b005b3480156200050857600080fd5b5062000527600480360381019062000521919062001c13565b620014ae565b005b3480156200053657600080fd5b506200055560048036038101906200054f919062001c13565b62001624565b005b62000561620016d9565b60003373ffffffffffffffffffffffffffffffffffffffff1647604051620005899062001d4f565b60006040518083038185875af1925050503d8060008114620005c8576040519150601f19603f3d011682016040523d82523d6000602084013e620005cd565b606091505b505090508062000609576040517fb9632e9e00000000000000000000000000000000000000000000000000000000815260040160405180910390fd5b50565b6000600260008381526020019081526020016000206040518060a00160405290816000820160009054906101000a900473ffffffffffffffffffffffffffffffffffffffff1673ffffffffffffffffffffffffffffffffffffffff1673ffffffffffffffffffffffffffffffffffffffff1681526020016001820160009054906101000a900473ffffffffffffffffffffffffffffffffffffffff1673ffffffffffffffffffffffffffffffffffffffff1673ffffffffffffffffffffffffffffffffffffffff16815260200160028201548152602001600382015481526020016004820154815250509050806000015173ffffffffffffffffffffffffffffffffffffffff163373ffffffffffffffffffffffffffffffffffffffff161462000762576040517f5aacf27700000000000000000000000000000000000000000000000000000000815260040160405180910390fd5b8060800151421015620007a1576040517f070736f400000000000000000000000000000000000000000000000000000000815260040160405180910390fd5b6000620007b282604001516200104d565b9050816020015173ffffffffffffffffffffffffffffffffffffffff1663a9059cbb33846040015184620007e7919062001d95565b6040518363ffffffff1660e01b81526004016200080692919062001dd0565b6020604051808303816000875af115801562000826573d6000803e3d6000fd5b505050506040513d601f19601f820116820180604052508101906200084c919062001e3a565b50600260006006548152602001908152602001600020600080820160006101000a81549073ffffffffffffffffffffffffffffffffffffffff02191690556001820160006101000a81549073ffffffffffffffffffffffffffffffffffffffff02191690556002820160009055600382016000905560048201600090555050505050565b60026020528060005260406000206000915090508060000160009054906101000a900473ffffffffffffffffffffffffffffffffffffffff16908060010160009054906101000a900473ffffffffffffffffffffffffffffffffffffffff16908060020154908060030154908060040154905085565b600080858584866040516200095b906200182a565b6200096a949392919062001ef5565b604051809103906000f08015801562000987573d6000803e3d6000fd5b50905060008173ffffffffffffffffffffffffffffffffffffffff166318160ddd6040518163ffffffff1660e01b8152600401602060405180830381865afa158015620009d8573d6000803e3d6000fd5b505050506040513d601f19601f82011682018060405250810190620009fe919062001f67565b90508173ffffffffffffffffffffffffffffffffffffffff1663095ea7b330836040518363ffffffff1660e01b815260040162000a3d92919062001dd0565b6020604051808303816000875af115801562000a5d573d6000803e3d6000fd5b505050506040513d601f19601f8201168201806040525081019062000a83919062001e3a565b506003600081548092919062000a999062001f99565b91905055508160016000600354815260200190815260200160002060006101000a81548173ffffffffffffffffffffffffffffffffffffffff021916908373ffffffffffffffffffffffffffffffffffffffff1602179055508373ffffffffffffffffffffffffffffffffffffffff168273ffffffffffffffffffffffffffffffffffffffff167fd5f9bdf12adf29dab0248c349842c3822d53ae2bb4f36352f301630d018c813960405160405180910390a38192505050949350505050565b60016020528060005260406000206000915054906101000a900473ffffffffffffffffffffffffffffffffffffffff1681565b60006001600084815260200190815260200160002060009054906101000a900473ffffffffffffffffffffffffffffffffffffffff1690508073ffffffffffffffffffffffffffffffffffffffff166323b872dd62000bea62000d71565b33856040518463ffffffff1660e01b815260040162000c0c9392919062001fe6565b6020604051808303816000875af115801562000c2c573d6000803e3d6000fd5b505050506040513d601f19601f8201168201806040525081019062000c52919062001e3a565b50505050565b62000c62620016d9565b62000c6e60006200175e565b565b600760009054906101000a900473ffffffffffffffffffffffffffffffffffffffff1681565b600860009054906101000a900473ffffffffffffffffffffffffffffffffffffffff1681565b62000cc6620016d9565b600073ffffffffffffffffffffffffffffffffffffffff168173ffffffffffffffffffffffffffffffffffffffff160362000d2d576040517f710dd83200000000000000000000000000000000000000000000000000000000815260040160405180910390fd5b80600860006101000a81548173ffffffffffffffffffffffffffffffffffffffff021916908373ffffffffffffffffffffffffffffffffffffffff16021790555050565b60008060009054906101000a900473ffffffffffffffffffffffffffffffffffffffff16905090565b60006004546127108362000daf919062002052565b62000dbb91906200208a565b9050919050565b60065481565b818373ffffffffffffffffffffffffffffffffffffffff166370a08231336040518263ffffffff1660e01b815260040162000e04919062001baf565b602060405180830381865afa15801562000e22573d6000803e3d6000fd5b505050506040513d601f19601f8201168201806040525081019062000e48919062001f67565b1062000e80576040517fa6baffc900000000000000000000000000000000000000000000000000000000815260040160405180910390fd5b8273ffffffffffffffffffffffffffffffffffffffff1663a9059cbb30846040518363ffffffff1660e01b815260040162000ebd92919062001dd0565b6020604051808303816000875af115801562000edd573d6000803e3d6000fd5b505050506040513d601f19601f8201168201806040525081019062000f03919062001e3a565b506006600081548092919062000f199062001f99565b91905055506000814262000f2e919062001d95565b90506040518060a001604052803373ffffffffffffffffffffffffffffffffffffffff1681526020018573ffffffffffffffffffffffffffffffffffffffff1681526020018481526020014281526020018281525060026000600654815260200190815260200160002060008201518160000160006101000a81548173ffffffffffffffffffffffffffffffffffffffff021916908373ffffffffffffffffffffffffffffffffffffffff16021790555060208201518160010160006101000a81548173ffffffffffffffffffffffffffffffffffffffff021916908373ffffffffffffffffffffffffffffffffffffffff16021790555060408201518160020155606082015181600301556080820151816004015590505050505050565b60006005546127108362001062919062002052565b6200106e91906200208a565b9050919050565b6200107f620016d9565b600073ffffffffffffffffffffffffffffffffffffffff168173ffffffffffffffffffffffffffffffffffffffff1603620010e6576040517f710dd83200000000000000000000000000000000000000000000000000000000815260040160405180910390fd5b80600960006101000a81548173ffffffffffffffffffffffffffffffffffffffff021916908373ffffffffffffffffffffffffffffffffffffffff16021790555050565b60035481565b60006001600085815260200190815260200160002060009054906101000a900473ffffffffffffffffffffffffffffffffffffffff169050818373ffffffffffffffffffffffffffffffffffffffff166370a08231336040518263ffffffff1660e01b8152600401620011a4919062001baf565b602060405180830381865afa158015620011c2573d6000803e3d6000fd5b505050506040513d601f19601f82011682018060405250810190620011e8919062001f67565b1062001220576040517fa6baffc900000000000000000000000000000000000000000000000000000000815260040160405180910390fd5b60006200122d8362000d9a565b9050600083826200123f9190620020d5565b90508473ffffffffffffffffffffffffffffffffffffffff1663a9059cbb600760009054906101000a900473ffffffffffffffffffffffffffffffffffffffff16836040518363ffffffff1660e01b8152600401620012a092919062001dd0565b6020604051808303816000875af1158015620012c0573d6000803e3d6000fd5b505050506040513d601f19601f82011682018060405250810190620012e6919062001e3a565b508473ffffffffffffffffffffffffffffffffffffffff1663a9059cbb600860009054906101000a900473ffffffffffffffffffffffffffffffffffffffff16846040518363ffffffff1660e01b81526004016200134692919062001dd0565b6020604051808303816000875af115801562001366573d6000803e3d6000fd5b505050506040513d601f19601f820116820180604052508101906200138c919062001e3a565b508273ffffffffffffffffffffffffffffffffffffffff166323b872dd620013b362000d71565b33876040518463ffffffff1660e01b8152600401620013d59392919062001fe6565b6020604051808303816000875af1158015620013f5573d6000803e3d6000fd5b505050506040513d601f19601f820116820180604052508101906200141b919062001e3a565b50505050505050565b6200142e620016d9565b600073ffffffffffffffffffffffffffffffffffffffff168173ffffffffffffffffffffffffffffffffffffffff1603620014a0576040517f08c379a0000000000000000000000000000000000000000000000000000000008152600401620014979062002186565b60405180910390fd5b620014ab816200175e565b50565b620014b8620016d9565b60008173ffffffffffffffffffffffffffffffffffffffff166318160ddd6040518163ffffffff1660e01b8152600401602060405180830381865afa15801562001506573d6000803e3d6000fd5b505050506040513d601f19601f820116820180604052508101906200152c919062001f67565b90508173ffffffffffffffffffffffffffffffffffffffff1663095ea7b330836040518363ffffffff1660e01b81526004016200156b92919062001dd0565b6020604051808303816000875af11580156200158b573d6000803e3d6000fd5b505050506040513d601f19601f82011682018060405250810190620015b1919062001e3a565b5060036000815480929190620015c79062001f99565b91905055508160016000600354815260200190815260200160002060006101000a81548173ffffffffffffffffffffffffffffffffffffffff021916908373ffffffffffffffffffffffffffffffffffffffff1602179055505050565b6200162e620016d9565b600073ffffffffffffffffffffffffffffffffffffffff168173ffffffffffffffffffffffffffffffffffffffff160362001695576040517f710dd83200000000000000000000000000000000000000000000000000000000815260040160405180910390fd5b80600760006101000a81548173ffffffffffffffffffffffffffffffffffffffff021916908373ffffffffffffffffffffffffffffffffffffffff16021790555050565b620016e362001822565b73ffffffffffffffffffffffffffffffffffffffff166200170362000d71565b73ffffffffffffffffffffffffffffffffffffffff16146200175c576040517f08c379a00000000000000000000000000000000000000000000000000000000081526004016200175390620021f8565b60405180910390fd5b565b60008060009054906101000a900473ffffffffffffffffffffffffffffffffffffffff169050816000806101000a81548173ffffffffffffffffffffffffffffffffffffffff021916908373ffffffffffffffffffffffffffffffffffffffff1602179055508173ffffffffffffffffffffffffffffffffffffffff168173ffffffffffffffffffffffffffffffffffffffff167f8be0079c531659141344cd1fd0a4f28419497f9722a3daafe3b4186f6b6457e060405160405180910390a35050565b600033905090565b611f14806200221b83390190565b6000604051905090565b600080fd5b600080fd5b6000819050919050565b62001861816200184c565b81146200186d57600080fd5b50565b600081359050620018818162001856565b92915050565b600060208284031215620018a0576200189f62001842565b5b6000620018b08482850162001870565b91505092915050565b600073ffffffffffffffffffffffffffffffffffffffff82169050919050565b6000620018e682620018b9565b9050919050565b620018f881620018d9565b82525050565b62001909816200184c565b82525050565b600060a082019050620019266000830188620018ed565b620019356020830187620018ed565b620019446040830186620018fe565b620019536060830185620018fe565b620019626080830184620018fe565b9695505050505050565b600080fd5b600080fd5b6000601f19601f8301169050919050565b7f4e487b7100000000000000000000000000000000000000000000000000000000600052604160045260246000fd5b620019c18262001976565b810181811067ffffffffffffffff82111715620019e357620019e262001987565b5b80604052505050565b6000620019f862001838565b905062001a068282620019b6565b919050565b600067ffffffffffffffff82111562001a295762001a2862001987565b5b62001a348262001976565b9050602081019050919050565b82818337600083830152505050565b600062001a6762001a618462001a0b565b620019ec565b90508281526020810184848401111562001a865762001a8562001971565b5b62001a9384828562001a41565b509392505050565b600082601f83011262001ab35762001ab26200196c565b5b813562001ac584826020860162001a50565b91505092915050565b62001ad981620018d9565b811462001ae557600080fd5b50565b60008135905062001af98162001ace565b92915050565b6000806000806080858703121562001b1c5762001b1b62001842565b5b600085013567ffffffffffffffff81111562001b3d5762001b3c62001847565b5b62001b4b8782880162001a9b565b945050602085013567ffffffffffffffff81111562001b6f5762001b6e62001847565b5b62001b7d8782880162001a9b565b935050604062001b908782880162001870565b925050606062001ba38782880162001ae8565b91505092959194509250565b600060208201905062001bc66000830184620018ed565b92915050565b6000806040838503121562001be65762001be562001842565b5b600062001bf68582860162001870565b925050602062001c098582860162001870565b9150509250929050565b60006020828403121562001c2c5762001c2b62001842565b5b600062001c3c8482850162001ae8565b91505092915050565b600060208201905062001c5c6000830184620018fe565b92915050565b60008060006060848603121562001c7e5762001c7d62001842565b5b600062001c8e8682870162001ae8565b935050602062001ca18682870162001870565b925050604062001cb48682870162001870565b9150509250925092565b60008060006060848603121562001cda5762001cd962001842565b5b600062001cea8682870162001870565b935050602062001cfd8682870162001ae8565b925050604062001d108682870162001870565b9150509250925092565b600081905092915050565b50565b600062001d3760008362001d1a565b915062001d448262001d25565b600082019050919050565b600062001d5c8262001d28565b9150819050919050565b7f4e487b7100000000000000000000000000000000000000000000000000000000600052601160045260246000fd5b600062001da2826200184c565b915062001daf836200184c565b925082820190508082111562001dca5762001dc962001d66565b5b92915050565b600060408201905062001de76000830185620018ed565b62001df66020830184620018fe565b9392505050565b60008115159050919050565b62001e148162001dfd565b811462001e2057600080fd5b50565b60008151905062001e348162001e09565b92915050565b60006020828403121562001e535762001e5262001842565b5b600062001e638482850162001e23565b91505092915050565b600081519050919050565b600082825260208201905092915050565b60005b8381101562001ea857808201518184015260208101905062001e8b565b60008484015250505050565b600062001ec18262001e6c565b62001ecd818562001e77565b935062001edf81856020860162001e88565b62001eea8162001976565b840191505092915050565b6000608082019050818103600083015262001f11818762001eb4565b9050818103602083015262001f27818662001eb4565b905062001f386040830185620018ed565b62001f476060830184620018fe565b95945050505050565b60008151905062001f618162001856565b92915050565b60006020828403121562001f805762001f7f62001842565b5b600062001f908482850162001f50565b91505092915050565b600062001fa6826200184c565b91507fffffffffffffffffffffffffffffffffffffffffffffffffffffffffffffffff820362001fdb5762001fda62001d66565b5b600182019050919050565b600060608201905062001ffd6000830186620018ed565b6200200c6020830185620018ed565b6200201b6040830184620018fe565b949350505050565b7f4e487b7100000000000000000000000000000000000000000000000000000000600052601260045260246000fd5b60006200205f826200184c565b91506200206c836200184c565b9250826200207f576200207e62002023565b5b828204905092915050565b600062002097826200184c565b9150620020a4836200184c565b9250828202620020b4816200184c565b91508282048414831517620020ce57620020cd62001d66565b5b5092915050565b6000620020e2826200184c565b9150620020ef836200184c565b92508282039050818111156200210a576200210962001d66565b5b92915050565b7f4f776e61626c653a206e6577206f776e657220697320746865207a65726f206160008201527f6464726573730000000000000000000000000000000000000000000000000000602082015250565b60006200216e60268362001e77565b91506200217b8262002110565b604082019050919050565b60006020820190508181036000830152620021a1816200215f565b9050919050565b7f4f776e61626c653a2063616c6c6572206973206e6f7420746865206f776e6572600082015250565b6000620021e060208362001e77565b9150620021ed82620021a8565b602082019050919050565b600060208201905081810360008301526200221381620021d1565b905091905056fe60806040523480156200001157600080fd5b5060405162001f1438038062001f14833981810160405281019062000037919062000466565b838381600390816200004a919062000757565b5080600490816200005c919062000757565b50505081600560006101000a81548173ffffffffffffffffffffffffffffffffffffffff021916908373ffffffffffffffffffffffffffffffffffffffff160217905550620000b28282620000bc60201b60201c565b5050505062000959565b600073ffffffffffffffffffffffffffffffffffffffff168273ffffffffffffffffffffffffffffffffffffffff16036200012e576040517f08c379a000000000000000000000000000000000000000000000000000000000815260040162000125906200089f565b60405180910390fd5b62000142600083836200022960201b60201c565b8060026000828254620001569190620008f0565b92505081905550806000808473ffffffffffffffffffffffffffffffffffffffff1673ffffffffffffffffffffffffffffffffffffffff168152602001908152602001600020600082825401925050819055508173ffffffffffffffffffffffffffffffffffffffff16600073ffffffffffffffffffffffffffffffffffffffff167fddf252ad1be2c89b69c2b068fc378daa952ba7f163c4a11628f55a4df523b3ef836040516200020991906200093c565b60405180910390a362000225600083836200022e60201b60201c565b5050565b505050565b505050565b6000604051905090565b600080fd5b600080fd5b600080fd5b600080fd5b6000601f19601f8301169050919050565b7f4e487b7100000000000000000000000000000000000000000000000000000000600052604160045260246000fd5b6200029c8262000251565b810181811067ffffffffffffffff82111715620002be57620002bd62000262565b5b80604052505050565b6000620002d362000233565b9050620002e1828262000291565b919050565b600067ffffffffffffffff82111562000304576200030362000262565b5b6200030f8262000251565b9050602081019050919050565b60005b838110156200033c5780820151818401526020810190506200031f565b60008484015250505050565b60006200035f6200035984620002e6565b620002c7565b9050828152602081018484840111156200037e576200037d6200024c565b5b6200038b8482856200031c565b509392505050565b600082601f830112620003ab57620003aa62000247565b5b8151620003bd84826020860162000348565b91505092915050565b600073ffffffffffffffffffffffffffffffffffffffff82169050919050565b6000620003f382620003c6565b9050919050565b6200040581620003e6565b81146200041157600080fd5b50565b6000815190506200042581620003fa565b92915050565b6000819050919050565b62000440816200042b565b81146200044c57600080fd5b50565b600081519050620004608162000435565b92915050565b600080600080608085870312156200048357620004826200023d565b5b600085015167ffffffffffffffff811115620004a457620004a362000242565b5b620004b28782880162000393565b945050602085015167ffffffffffffffff811115620004d657620004d562000242565b5b620004e48782880162000393565b9350506040620004f78782880162000414565b92505060606200050a878288016200044f565b91505092959194509250565b600081519050919050565b7f4e487b7100000000000000000000000000000000000000000000000000000000600052602260045260246000fd5b600060028204905060018216806200056957607f821691505b6020821081036200057f576200057e62000521565b5b50919050565b60008190508160005260206000209050919050565b60006020601f8301049050919050565b600082821b905092915050565b600060088302620005e97fffffffffffffffffffffffffffffffffffffffffffffffffffffffffffffffff82620005aa565b620005f58683620005aa565b95508019841693508086168417925050509392505050565b6000819050919050565b600062000638620006326200062c846200042b565b6200060d565b6200042b565b9050919050565b6000819050919050565b620006548362000617565b6200066c62000663826200063f565b848454620005b7565b825550505050565b600090565b6200068362000674565b6200069081848462000649565b505050565b5b81811015620006b857620006ac60008262000679565b60018101905062000696565b5050565b601f8211156200070757620006d18162000585565b620006dc846200059a565b81016020851015620006ec578190505b62000704620006fb856200059a565b83018262000695565b50505b505050565b600082821c905092915050565b60006200072c600019846008026200070c565b1980831691505092915050565b600062000747838362000719565b9150826002028217905092915050565b620007628262000516565b67ffffffffffffffff8111156200077e576200077d62000262565b5b6200078a825462000550565b62000797828285620006bc565b600060209050601f831160018114620007cf5760008415620007ba578287015190505b620007c6858262000739565b86555062000836565b601f198416620007df8662000585565b60005b828110156200080957848901518255600182019150602085019450602081019050620007e2565b8683101562000829578489015162000825601f89168262000719565b8355505b6001600288020188555050505b505050505050565b600082825260208201905092915050565b7f45524332303a206d696e7420746f20746865207a65726f206164647265737300600082015250565b600062000887601f836200083e565b915062000894826200084f565b602082019050919050565b60006020820190508181036000830152620008ba8162000878565b9050919050565b7f4e487b7100000000000000000000000000000000000000000000000000000000600052601160045260246000fd5b6000620008fd826200042b565b91506200090a836200042b565b9250828201905080821115620009255762000924620008c1565b5b92915050565b62000936816200042b565b82525050565b60006020820190506200095360008301846200092b565b92915050565b6115ab80620009696000396000f3fe608060405234801561001057600080fd5b50600436106100cf5760003560e01c806340c10f191161008c57806395d89b411161006657806395d89b4114610228578063a457c2d714610246578063a9059cbb14610276578063dd62ed3e146102a6576100cf565b806340c10f19146101be57806370a08231146101da5780638da5cb5b1461020a576100cf565b806306fdde03146100d4578063095ea7b3146100f257806318160ddd1461012257806323b872dd14610140578063313ce56714610170578063395093511461018e575b600080fd5b6100dc6102d6565b6040516100e99190610d86565b60405180910390f35b61010c60048036038101906101079190610e41565b610368565b6040516101199190610e9c565b60405180910390f35b61012a61038b565b6040516101379190610ec6565b60405180910390f35b61015a60048036038101906101559190610ee1565b610395565b6040516101679190610e9c565b60405180910390f35b6101786103c4565b6040516101859190610f50565b60405180910390f35b6101a860048036038101906101a39190610e41565b6103cd565b6040516101b59190610e9c565b60405180910390f35b6101d860048036038101906101d39190610e41565b610404565b005b6101f460048036038101906101ef9190610f6b565b6104a2565b6040516102019190610ec6565b60405180910390f35b6102126104ea565b60405161021f9190610fa7565b60405180910390f35b610230610510565b60405161023d9190610d86565b60405180910390f35b610260600480360381019061025b9190610e41565b6105a2565b60405161026d9190610e9c565b60405180910390f35b610290600480360381019061028b9190610e41565b610619565b60405161029d9190610e9c565b60405180910390f35b6102c060048036038101906102bb9190610fc2565b61063c565b6040516102cd9190610ec6565b60405180910390f35b6060600380546102e590611031565b80601f016020809104026020016040519081016040528092919081815260200182805461031190611031565b801561035e5780601f106103335761010080835404028352916020019161035e565b820191906000526020600020905b81548152906001019060200180831161034157829003601f168201915b5050505050905090565b6000806103736106c3565b90506103808185856106cb565b600191505092915050565b6000600254905090565b6000806103a06106c3565b90506103ad858285610894565b6103b8858585610920565b60019150509392505050565b60006012905090565b6000806103d86106c3565b90506103f98185856103ea858961063c565b6103f49190611091565b6106cb565b600191505092915050565b600560009054906101000a900473ffffffffffffffffffffffffffffffffffffffff1673ffffffffffffffffffffffffffffffffffffffff163373ffffffffffffffffffffffffffffffffffffffff1614610494576040517f08c379a000000000000000000000000000000000000000000000000000000000815260040161048b90611111565b60405180910390fd5b61049e8282610b96565b5050565b60008060008373ffffffffffffffffffffffffffffffffffffffff1673ffffffffffffffffffffffffffffffffffffffff168152602001908152602001600020549050919050565b600560009054906101000a900473ffffffffffffffffffffffffffffffffffffffff1681565b60606004805461051f90611031565b80601f016020809104026020016040519081016040528092919081815260200182805461054b90611031565b80156105985780601f1061056d57610100808354040283529160200191610598565b820191906000526020600020905b81548152906001019060200180831161057b57829003601f168201915b5050505050905090565b6000806105ad6106c3565b905060006105bb828661063c565b905083811015610600576040517f08c379a00000000000000000000000000000000000000000000000000000000081526004016105f7906111a3565b60405180910390fd5b61060d82868684036106cb565b60019250505092915050565b6000806106246106c3565b9050610631818585610920565b600191505092915050565b6000600160008473ffffffffffffffffffffffffffffffffffffffff1673ffffffffffffffffffffffffffffffffffffffff16815260200190815260200160002060008373ffffffffffffffffffffffffffffffffffffffff1673ffffffffffffffffffffffffffffffffffffffff16815260200190815260200160002054905092915050565b600033905090565b600073ffffffffffffffffffffffffffffffffffffffff168373ffffffffffffffffffffffffffffffffffffffff160361073a576040517f08c379a000000000000000000000000000000000000000000000000000000000815260040161073190611235565b60405180910390fd5b600073ffffffffffffffffffffffffffffffffffffffff168273ffffffffffffffffffffffffffffffffffffffff16036107a9576040517f08c379a00000000000000000000000000000000000000000000000000000000081526004016107a0906112c7565b60405180910390fd5b80600160008573ffffffffffffffffffffffffffffffffffffffff1673ffffffffffffffffffffffffffffffffffffffff16815260200190815260200160002060008473ffffffffffffffffffffffffffffffffffffffff1673ffffffffffffffffffffffffffffffffffffffff168152602001908152602001600020819055508173ffffffffffffffffffffffffffffffffffffffff168373ffffffffffffffffffffffffffffffffffffffff167f8c5be1e5ebec7d5bd14f71427d1e84f3dd0314c0f7b2291e5b200ac8c7c3b925836040516108879190610ec6565b60405180910390a3505050565b60006108a0848461063c565b90507fffffffffffffffffffffffffffffffffffffffffffffffffffffffffffffffff811461091a578181101561090c576040517f08c379a000000000000000000000000000000000000000000000000000000000815260040161090390611333565b60405180910390fd5b61091984848484036106cb565b5b50505050565b600073ffffffffffffffffffffffffffffffffffffffff168373ffffffffffffffffffffffffffffffffffffffff160361098f576040517f08c379a0000000000000000000000000000000000000000000000000000000008152600401610986906113c5565b60405180910390fd5b600073ffffffffffffffffffffffffffffffffffffffff168273ffffffffffffffffffffffffffffffffffffffff16036109fe576040517f08c379a00000000000000000000000000000000000000000000000000000000081526004016109f590611457565b60405180910390fd5b610a09838383610cec565b60008060008573ffffffffffffffffffffffffffffffffffffffff1673ffffffffffffffffffffffffffffffffffffffff16815260200190815260200160002054905081811015610a8f576040517f08c379a0000000000000000000000000000000000000000000000000000000008152600401610a86906114e9565b60405180910390fd5b8181036000808673ffffffffffffffffffffffffffffffffffffffff1673ffffffffffffffffffffffffffffffffffffffff16815260200190815260200160002081905550816000808573ffffffffffffffffffffffffffffffffffffffff1673ffffffffffffffffffffffffffffffffffffffff168152602001908152602001600020600082825401925050819055508273ffffffffffffffffffffffffffffffffffffffff168473ffffffffffffffffffffffffffffffffffffffff167fddf252ad1be2c89b69c2b068fc378daa952ba7f163c4a11628f55a4df523b3ef84604051610b7d9190610ec6565b60405180910390a3610b90848484610cf1565b50505050565b600073ffffffffffffffffffffffffffffffffffffffff168273ffffffffffffffffffffffffffffffffffffffff1603610c05576040517f08c379a0000000000000000000000000000000000000000000000000000000008152600401610bfc90611555565b60405180910390fd5b610c1160008383610cec565b8060026000828254610c239190611091565b92505081905550806000808473ffffffffffffffffffffffffffffffffffffffff1673ffffffffffffffffffffffffffffffffffffffff168152602001908152602001600020600082825401925050819055508173ffffffffffffffffffffffffffffffffffffffff16600073ffffffffffffffffffffffffffffffffffffffff167fddf252ad1be2c89b69c2b068fc378daa952ba7f163c4a11628f55a4df523b3ef83604051610cd49190610ec6565b60405180910390a3610ce860008383610cf1565b5050565b505050565b505050565b600081519050919050565b600082825260208201905092915050565b60005b83811015610d30578082015181840152602081019050610d15565b60008484015250505050565b6000601f19601f8301169050919050565b6000610d5882610cf6565b610d628185610d01565b9350610d72818560208601610d12565b610d7b81610d3c565b840191505092915050565b60006020820190508181036000830152610da08184610d4d565b905092915050565b600080fd5b600073ffffffffffffffffffffffffffffffffffffffff82169050919050565b6000610dd882610dad565b9050919050565b610de881610dcd565b8114610df357600080fd5b50565b600081359050610e0581610ddf565b92915050565b6000819050919050565b610e1e81610e0b565b8114610e2957600080fd5b50565b600081359050610e3b81610e15565b92915050565b60008060408385031215610e5857610e57610da8565b5b6000610e6685828601610df6565b9250506020610e7785828601610e2c565b9150509250929050565b60008115159050919050565b610e9681610e81565b82525050565b6000602082019050610eb16000830184610e8d565b92915050565b610ec081610e0b565b82525050565b6000602082019050610edb6000830184610eb7565b92915050565b600080600060608486031215610efa57610ef9610da8565b5b6000610f0886828701610df6565b9350506020610f1986828701610df6565b9250506040610f2a86828701610e2c565b9150509250925092565b600060ff82169050919050565b610f4a81610f34565b82525050565b6000602082019050610f656000830184610f41565b92915050565b600060208284031215610f8157610f80610da8565b5b6000610f8f84828501610df6565b91505092915050565b610fa181610dcd565b82525050565b6000602082019050610fbc6000830184610f98565b92915050565b60008060408385031215610fd957610fd8610da8565b5b6000610fe785828601610df6565b9250506020610ff885828601610df6565b9150509250929050565b7f4e487b7100000000000000000000000000000000000000000000000000000000600052602260045260246000fd5b6000600282049050600182168061104957607f821691505b60208210810361105c5761105b611002565b5b50919050565b7f4e487b7100000000000000000000000000000000000000000000000000000000600052601160045260246000fd5b600061109c82610e0b565b91506110a783610e0b565b92508282019050808211156110bf576110be611062565b5b92915050565b7f796f757220617265206e6f74206f776e65720000000000000000000000000000600082015250565b60006110fb601283610d01565b9150611106826110c5565b602082019050919050565b6000602082019050818103600083015261112a816110ee565b9050919050565b7f45524332303a2064656372656173656420616c6c6f77616e63652062656c6f7760008201527f207a65726f000000000000000000000000000000000000000000000000000000602082015250565b600061118d602583610d01565b915061119882611131565b604082019050919050565b600060208201905081810360008301526111bc81611180565b9050919050565b7f45524332303a20617070726f76652066726f6d20746865207a65726f2061646460008201527f7265737300000000000000000000000000000000000000000000000000000000602082015250565b600061121f602483610d01565b915061122a826111c3565b604082019050919050565b6000602082019050818103600083015261124e81611212565b9050919050565b7f45524332303a20617070726f766520746f20746865207a65726f20616464726560008201527f7373000000000000000000000000000000000000000000000000000000000000602082015250565b60006112b1602283610d01565b91506112bc82611255565b604082019050919050565b600060208201905081810360008301526112e0816112a4565b9050919050565b7f45524332303a20696e73756666696369656e7420616c6c6f77616e6365000000600082015250565b600061131d601d83610d01565b9150611328826112e7565b602082019050919050565b6000602082019050818103600083015261134c81611310565b9050919050565b7f45524332303a207472616e736665722066726f6d20746865207a65726f20616460008201527f6472657373000000000000000000000000000000000000000000000000000000602082015250565b60006113af602583610d01565b91506113ba82611353565b604082019050919050565b600060208201905081810360008301526113de816113a2565b9050919050565b7f45524332303a207472616e7366657220746f20746865207a65726f206164647260008201527f6573730000000000000000000000000000000000000000000000000000000000602082015250565b6000611441602383610d01565b915061144c826113e5565b604082019050919050565b6000602082019050818103600083015261147081611434565b9050919050565b7f45524332303a207472616e7366657220616d6f756e742065786365656473206260008201527f616c616e63650000000000000000000000000000000000000000000000000000602082015250565b60006114d3602683610d01565b91506114de82611477565b604082019050919050565b60006020820190508181036000830152611502816114c6565b9050919050565b7f45524332303a206d696e7420746f20746865207a65726f206164647265737300600082015250565b600061153f601f83610d01565b915061154a82611509565b602082019050919050565b6000602082019050818103600083015261156e81611532565b905091905056fea2646970667358221220666af7ef24ba18d3854b456be0e6ddb3853a852c4059b8523332488df99c164464736f6c63430008130033a26469706673582212204a308214907017779ba9bc28ba8a5ed8842360433261adbf0dbfa6afebf178a164736f6c63430008130033",
  "linkReferences": {},
  "deployedLinkReferences": {}
}